{
  "contractName": "BlindAuction",
  "abi": [
    {
      "anonymous": false,
      "inputs": [
        {
          "indexed": false,
          "internalType": "uint256",
          "name": "Auction_id",
          "type": "uint256"
        },
        {
          "indexed": false,
          "internalType": "address",
          "name": "highestBidder",
          "type": "address"
        },
        {
          "indexed": false,
          "internalType": "uint256",
          "name": "highestBid",
          "type": "uint256"
        }
      ],
      "name": "AuctionEnded",
      "type": "event"
    },
    {
      "anonymous": false,
      "inputs": [
        {
          "indexed": false,
          "internalType": "uint256",
          "name": "Auction_id",
          "type": "uint256"
        },
        {
          "indexed": false,
          "internalType": "string",
          "name": "item_name",
          "type": "string"
        },
        {
          "indexed": false,
          "internalType": "string",
          "name": "item_description",
          "type": "string"
        }
      ],
      "name": "AuctionStarted",
      "type": "event"
    },
    {
      "anonymous": false,
      "inputs": [
        {
          "indexed": false,
          "internalType": "uint256",
          "name": "auction_id",
          "type": "uint256"
        },
        {
          "indexed": false,
          "internalType": "address",
          "name": "bidder",
          "type": "address"
        },
        {
          "indexed": false,
          "internalType": "uint256",
          "name": "balance",
          "type": "uint256"
        }
      ],
      "name": "BalanceRefunded",
      "type": "event"
    },
    {
      "anonymous": false,
      "inputs": [
        {
          "indexed": false,
          "internalType": "address",
          "name": "bidder",
          "type": "address"
        }
      ],
      "name": "BidMade",
      "type": "event"
    },
    {
      "anonymous": false,
      "inputs": [
        {
          "indexed": false,
          "internalType": "uint256",
          "name": "Auction_id",
          "type": "uint256"
        },
        {
          "indexed": false,
          "internalType": "address",
          "name": "bidder",
          "type": "address"
        }
      ],
      "name": "BidRevealFailed",
      "type": "event"
    },
    {
      "anonymous": false,
      "inputs": [
        {
          "indexed": false,
          "internalType": "uint256",
          "name": "Auction_id",
          "type": "uint256"
        },
        {
          "indexed": false,
          "internalType": "address",
          "name": "bidder",
          "type": "address"
        }
      ],
      "name": "BidRevealed",
      "type": "event"
    },
    {
      "anonymous": false,
      "inputs": [
        {
          "indexed": false,
          "internalType": "uint256",
          "name": "auction_id",
          "type": "uint256"
        },
        {
          "indexed": false,
          "internalType": "address",
          "name": "bidder",
          "type": "address"
        },
        {
          "indexed": false,
          "internalType": "uint256",
          "name": "bid_value",
          "type": "uint256"
        }
      ],
      "name": "BidderRefunded",
      "type": "event"
    },
    {
      "anonymous": false,
      "inputs": [
        {
          "indexed": false,
          "internalType": "uint256",
          "name": "Auction_id",
          "type": "uint256"
        }
      ],
      "name": "BiddingPeriodEnded",
      "type": "event"
    },
    {
      "anonymous": false,
      "inputs": [
        {
          "indexed": false,
          "internalType": "uint256",
          "name": "Auction_id",
          "type": "uint256"
        },
        {
          "indexed": false,
          "internalType": "uint256",
          "name": "bidding_end",
          "type": "uint256"
        }
      ],
      "name": "BiddingStarted",
      "type": "event"
    },
    {
      "anonymous": false,
      "inputs": [
        {
          "indexed": false,
          "internalType": "uint256",
          "name": "auction_id",
          "type": "uint256"
        },
        {
          "indexed": false,
          "internalType": "address",
          "name": "bidder",
          "type": "address"
        }
      ],
      "name": "DepositNotEnough",
      "type": "event"
    },
    {
      "anonymous": false,
      "inputs": [
        {
          "indexed": false,
          "internalType": "uint256",
          "name": "auction_id",
          "type": "uint256"
        }
      ],
      "name": "ItemUnsold",
      "type": "event"
    },
    {
      "anonymous": false,
      "inputs": [
        {
          "indexed": false,
          "internalType": "uint256",
          "name": "auction_id",
          "type": "uint256"
        },
        {
          "indexed": false,
          "internalType": "address",
          "name": "bidder",
          "type": "address"
        },
        {
          "indexed": false,
          "internalType": "uint256",
          "name": "bid_value",
          "type": "uint256"
        }
      ],
      "name": "NewHighestBid",
      "type": "event"
    },
    {
      "anonymous": false,
      "inputs": [
        {
          "indexed": false,
          "internalType": "uint256",
          "name": "Auction_id",
          "type": "uint256"
        }
      ],
      "name": "RevealPeriodEnded",
      "type": "event"
    },
    {
      "anonymous": false,
      "inputs": [
        {
          "indexed": false,
          "internalType": "uint256",
          "name": "Auction_id",
          "type": "uint256"
        },
        {
          "indexed": false,
          "internalType": "uint256",
          "name": "reveal_end",
          "type": "uint256"
        }
      ],
      "name": "RevealPeriodStarted",
      "type": "event"
    },
    {
      "anonymous": false,
      "inputs": [
        {
          "indexed": false,
          "internalType": "uint256",
          "name": "Auction_id",
          "type": "uint256"
        },
        {
          "indexed": false,
          "internalType": "address",
          "name": "winner",
          "type": "address"
        },
        {
          "indexed": false,
          "internalType": "string",
          "name": "pubkey",
          "type": "string"
        },
        {
          "indexed": false,
          "internalType": "uint256",
          "name": "winningBid",
          "type": "uint256"
        }
      ],
      "name": "WinnerChosen",
      "type": "event"
    },
    {
      "anonymous": false,
      "inputs": [
        {
          "indexed": false,
          "internalType": "uint256",
          "name": "auction_id",
          "type": "uint256"
        }
      ],
      "name": "deliveryComplete",
      "type": "event"
    },
    {
      "anonymous": false,
      "inputs": [
        {
          "indexed": false,
          "internalType": "uint256",
          "name": "auction_id",
          "type": "uint256"
        },
        {
          "indexed": false,
          "internalType": "string",
          "name": "H",
          "type": "string"
        }
      ],
      "name": "encryptedKey",
      "type": "event"
    },
    {
      "inputs": [
        {
          "internalType": "address",
          "name": "account",
          "type": "address"
        }
      ],
      "name": "getAccountBalance",
      "outputs": [
        {
          "internalType": "uint256",
          "name": "accountBalance",
          "type": "uint256"
        }
      ],
      "stateMutability": "view",
      "type": "function",
      "constant": true
    },
    {
      "inputs": [
        {
          "internalType": "string",
          "name": "item_name",
          "type": "string"
        },
        {
          "internalType": "string",
          "name": "item_description",
          "type": "string"
        },
        {
          "internalType": "uint256",
          "name": "bidding_time",
          "type": "uint256"
        },
        {
          "internalType": "uint256",
          "name": "reveal_time",
          "type": "uint256"
        }
      ],
      "name": "auctionItem",
      "outputs": [],
      "stateMutability": "payable",
      "type": "function",
      "payable": true
    },
    {
      "inputs": [],
      "name": "getactiveauctions",
      "outputs": [
        {
          "components": [
            {
              "internalType": "uint256",
              "name": "auction_id",
              "type": "uint256"
            },
            {
              "internalType": "address payable",
              "name": "beneficiary",
              "type": "address"
            },
            {
              "internalType": "uint256",
              "name": "biddingEnd",
              "type": "uint256"
            },
            {
              "internalType": "uint256",
              "name": "revealEnd",
              "type": "uint256"
            },
            {
              "internalType": "bool",
              "name": "ended",
              "type": "bool"
            },
            {
              "internalType": "string",
              "name": "item_name",
              "type": "string"
            },
            {
              "internalType": "string",
              "name": "item_description",
              "type": "string"
            },
            {
              "internalType": "bool",
              "name": "bidplaced",
              "type": "bool"
            },
            {
              "internalType": "bool",
              "name": "revealed",
              "type": "bool"
            }
          ],
          "internalType": "struct BlindAuction.auction_active_listings[]",
          "name": "",
          "type": "tuple[]"
        }
      ],
      "stateMutability": "view",
      "type": "function",
      "constant": true
    },
    {
      "inputs": [],
      "name": "getallauctions",
      "outputs": [
        {
          "components": [
            {
              "internalType": "uint256",
              "name": "auction_id",
              "type": "uint256"
            },
            {
              "internalType": "address payable",
              "name": "beneficiary",
              "type": "address"
            },
            {
              "internalType": "address payable",
              "name": "winner",
              "type": "address"
            },
            {
              "internalType": "uint256",
              "name": "biddingEnd",
              "type": "uint256"
            },
            {
              "internalType": "uint256",
              "name": "revealEnd",
              "type": "uint256"
            },
            {
              "internalType": "bool",
              "name": "ended",
              "type": "bool"
            },
            {
              "internalType": "bool",
              "name": "sold",
              "type": "bool"
            },
            {
              "internalType": "string",
              "name": "item_name",
              "type": "string"
            },
            {
              "internalType": "string",
              "name": "item_description",
              "type": "string"
            },
            {
              "internalType": "bool",
              "name": "bidplaced",
              "type": "bool"
            },
            {
              "internalType": "bool",
              "name": "revealed",
              "type": "bool"
            },
            {
              "internalType": "uint256",
              "name": "finalBid",
              "type": "uint256"
            },
            {
              "internalType": "string",
              "name": "pubkey",
              "type": "string"
            },
            {
              "internalType": "string",
              "name": "H",
              "type": "string"
            }
          ],
          "internalType": "struct BlindAuction.auction_all_listings[]",
          "name": "",
          "type": "tuple[]"
        }
      ],
      "stateMutability": "view",
      "type": "function",
      "constant": true
    },
    {
      "inputs": [
        {
          "internalType": "bytes32",
          "name": "blindedBid",
          "type": "bytes32"
        },
        {
          "internalType": "uint256",
          "name": "auction_id",
          "type": "uint256"
        },
        {
          "internalType": "string",
          "name": "pubkey",
          "type": "string"
        }
      ],
      "name": "bid",
      "outputs": [],
      "stateMutability": "payable",
      "type": "function",
      "payable": true
    },
    {
      "inputs": [
        {
          "internalType": "uint256",
          "name": "value",
          "type": "uint256"
        },
        {
          "internalType": "string",
          "name": "secret",
          "type": "string"
        },
        {
          "internalType": "uint256",
          "name": "auction_id",
          "type": "uint256"
        }
      ],
      "name": "reveal",
      "outputs": [],
      "stateMutability": "payable",
      "type": "function",
      "payable": true
    },
    {
      "inputs": [
        {
          "internalType": "uint256",
          "name": "auction_id",
          "type": "uint256"
        }
      ],
      "name": "auctionEnd",
      "outputs": [],
      "stateMutability": "nonpayable",
      "type": "function"
    },
    {
      "inputs": [
        {
          "internalType": "uint256",
          "name": "auction_id",
          "type": "uint256"
        },
        {
          "internalType": "string",
          "name": "H",
          "type": "string"
        }
      ],
      "name": "sellItem",
      "outputs": [],
      "stateMutability": "payable",
      "type": "function",
      "payable": true
    },
    {
      "inputs": [
        {
          "internalType": "uint256",
          "name": "auction_id",
          "type": "uint256"
        }
      ],
      "name": "confirmDelivery",
      "outputs": [],
      "stateMutability": "payable",
      "type": "function",
      "payable": true
    }
  ],
  "bytecode": "0x60806040526000600355600060045534801561001a57600080fd5b50613a888061002a6000396000f3fe6080604052600436106100865760003560e01c806393423e9c1161005957806393423e9c1461011757806396a18f8014610154578063b5e360371461017f578063e701cfc21461019b578063fd84cb97146101b757610086565b80630754aebb1461008b57806332246e9f146100b65780634f3ae594146100df57806384febc4b146100fb575b600080fd5b34801561009757600080fd5b506100a06101d3565b6040516100ad91906127ed565b60405180910390f35b3480156100c257600080fd5b506100dd60048036038101906100d89190612845565b610737565b005b6100f960048036038101906100f491906128d7565b610d24565b005b6101156004803603810190610110919061294b565b6111db565b005b34801561012357600080fd5b5061013e600480360381019061013991906129e9565b6113fd565b60405161014b9190612a25565b60405180910390f35b34801561016057600080fd5b5061016961141e565b6040516101769190612bce565b60405180910390f35b61019960048036038101906101949190612c26565b61176a565b005b6101b560048036038101906101b09190612c9a565b611ade565b005b6101d160048036038101906101cc9190612845565b611c4d565b005b6060600060035467ffffffffffffffff8111156101f3576101f2612d41565b5b60405190808252806020026020018201604052801561022c57816020015b6102196123d8565b8152602001906001900390816102115790505b50905060005b60035481101561072f5760006002600083815260200190815260200160002090506000604051806020016040528060008152509050600073ffffffffffffffffffffffffffffffffffffffff168260070160019054906101000a900473ffffffffffffffffffffffffffffffffffffffff1673ffffffffffffffffffffffffffffffffffffffff16146103b0578160110160008360070160019054906101000a900473ffffffffffffffffffffffffffffffffffffffff1673ffffffffffffffffffffffffffffffffffffffff1673ffffffffffffffffffffffffffffffffffffffff168152602001908152602001600020805461032f90612d9f565b80601f016020809104026020016040519081016040528092919081815260200182805461035b90612d9f565b80156103a85780601f1061037d576101008083540402835291602001916103a8565b820191906000526020600020905b81548152906001019060200180831161038b57829003601f168201915b505050505090505b604051806101c00160405280836000015481526020018360010160009054906101000a900473ffffffffffffffffffffffffffffffffffffffff1673ffffffffffffffffffffffffffffffffffffffff1681526020018360070160019054906101000a900473ffffffffffffffffffffffffffffffffffffffff1673ffffffffffffffffffffffffffffffffffffffff16815260200183600201548152602001836003015481526020018360040160009054906101000a900460ff16151581526020018360070160009054906101000a900460ff161515815260200183600501805461049b90612d9f565b80601f01602080910402602001604051908101604052809291908181526020018280546104c790612d9f565b80156105145780601f106104e957610100808354040283529160200191610514565b820191906000526020600020905b8154815290600101906020018083116104f757829003601f168201915b5050505050815260200183600601805461052d90612d9f565b80601f016020809104026020016040519081016040528092919081815260200182805461055990612d9f565b80156105a65780601f1061057b576101008083540402835291602001916105a6565b820191906000526020600020905b81548152906001019060200180831161058957829003601f168201915b5050505050815260200183600f0160003373ffffffffffffffffffffffffffffffffffffffff1673ffffffffffffffffffffffffffffffffffffffff16815260200190815260200160002060009054906101000a900460ff16151581526020018360100160003373ffffffffffffffffffffffffffffffffffffffff1673ffffffffffffffffffffffffffffffffffffffff16815260200190815260200160002060009054906101000a900460ff16151581526020018360080154815260200182815260200183600c01805461067b90612d9f565b80601f01602080910402602001604051908101604052809291908181526020018280546106a790612d9f565b80156106f45780601f106106c9576101008083540402835291602001916106f4565b820191906000526020600020905b8154815290600101906020018083116106d757829003601f168201915b505050505081525084848151811061070f5761070e612dd0565b5b60200260200101819052505050808061072790612e2e565b915050610232565b508091505090565b6002600082815260200190815260200160002060030154804211610790576040517f08c379a000000000000000000000000000000000000000000000000000000000815260040161078790612ed3565b60405180910390fd5b813373ffffffffffffffffffffffffffffffffffffffff166002600083815260200190815260200160002060010160009054906101000a900473ffffffffffffffffffffffffffffffffffffffff1673ffffffffffffffffffffffffffffffffffffffff1614610835576040517f08c379a000000000000000000000000000000000000000000000000000000000815260040161082c90612f65565b60405180910390fd5b82600015156002600083815260200190815260200160002060040160009054906101000a900460ff161515146108a0576040517f08c379a000000000000000000000000000000000000000000000000000000000815260040161089790612fd1565b60405180910390fd5b600060026000868152602001908152602001600020600801541480156109285750600073ffffffffffffffffffffffffffffffffffffffff166002600086815260200190815260200160002060070160019054906101000a900473ffffffffffffffffffffffffffffffffffffffff1673ffffffffffffffffffffffffffffffffffffffff16145b156109ee577ff656db5d7eec16959704ab1442c4686390e8bdca6e2fd99d193f6871512359ea8460405161095c9190612a25565b60405180910390a17fd2aa34a4fdbbc6dff6a3e56f46e0f3ae2a31d7785ff3487aa5c95c642acea5018460008060405161099893929190613045565b60405180910390a160016002600086815260200190815260200160002060040160006101000a81548160ff0219169083151502179055506001600460008282546109e2919061307c565b92505081905550610d1e565b7fd2aa34a4fdbbc6dff6a3e56f46e0f3ae2a31d7785ff3487aa5c95c642acea501846002600087815260200190815260200160002060070160019054906101000a900473ffffffffffffffffffffffffffffffffffffffff166002600088815260200190815260200160002060080154604051610a6d93929190613105565b60405180910390a160016002600086815260200190815260200160002060040160006101000a81548160ff021916908315150217905550600160046000828254610ab7919061307c565b925050819055506002600085815260200190815260200160002060070160019054906101000a900473ffffffffffffffffffffffffffffffffffffffff1660026000868152602001908152602001600020600a0160006101000a81548173ffffffffffffffffffffffffffffffffffffffff021916908373ffffffffffffffffffffffffffffffffffffffff160217905550600260008581526020019081526020016000206008015460026000868152602001908152602001600020600b018190555060005b6002600086815260200190815260200160002060090180549050811015610c0b57610bfa85600260008881526020019081526020016000206009018381548110610bca57610bc9612dd0565b5b9060005260206000200160009054906101000a900473ffffffffffffffffffffffffffffffffffffffff16611fc5565b80610c0490612e2e565b9050610b7d565b507f9fa608827c3c4a8327a334f831d3ac579446f5314638ac0108bbaa17441e16a48460026000878152602001908152602001600020600a0160009054906101000a900473ffffffffffffffffffffffffffffffffffffffff16600260008881526020019081526020016000206011016000600260008a8152602001908152602001600020600a0160009054906101000a900473ffffffffffffffffffffffffffffffffffffffff1673ffffffffffffffffffffffffffffffffffffffff1673ffffffffffffffffffffffffffffffffffffffff16815260200190815260200160002060026000898152602001908152602001600020600b0154604051610d1594939291906131d5565b60405180910390a15b50505050565b6002600082815260200190815260200160002060020154804211610d7d576040517f08c379a0000000000000000000000000000000000000000000000000000000008152600401610d7490612ed3565b60405180910390fd5b6002600083815260200190815260200160002060030154804210610dd6576040517f08c379a0000000000000000000000000000000000000000000000000000000008152600401610dcd9061326d565b60405180910390fd5b826001151560026000838152602001908152602001600020600f0160003373ffffffffffffffffffffffffffffffffffffffff1673ffffffffffffffffffffffffffffffffffffffff16815260200190815260200160002060009054906101000a900460ff16151514610e7e576040517f08c379a0000000000000000000000000000000000000000000000000000000008152600401610e75906132ff565b60405180910390fd5b836003548110610ec3576040517f08c379a0000000000000000000000000000000000000000000000000000000008152600401610eba90613391565b60405180910390fd5b600080600060026000898152602001908152602001600020600d0160003373ffffffffffffffffffffffffffffffffffffffff1673ffffffffffffffffffffffffffffffffffffffff16815260200190815260200160002090508a8a8a604051602001610f32939291906133ed565b60405160208183030381529060405280519060200120816000015414610f90577fad8c260aa7a48094cdeb8c07f33bcf4e3bb56893286c330706ca376c728e9f3e8833604051610f8392919061341f565b60405180910390a16111ce565b6000801b816000018190555060026000898152602001908152602001600020600901339080600181540180825580915050600190039060005260206000200160009091909190916101000a81548173ffffffffffffffffffffffffffffffffffffffff021916908373ffffffffffffffffffffffffffffffffffffffff1602179055506001600260008a815260200190815260200160002060100160003373ffffffffffffffffffffffffffffffffffffffff1673ffffffffffffffffffffffffffffffffffffffff16815260200190815260200160002060006101000a81548160ff02191690831515021790555080600101548361108f9190613448565b92508a600261109e919061347c565b816001015410611111576110b388338d6121cc565b156110d3578a60026110c5919061347c565b836110d0919061307c565b92505b7fcb1784faad642d48c787676118783766577faa10d9c69eb1fbb40c3baaac87d1883360405161110492919061341f565b60405180910390a161114b565b7f2aef0deb49f8c134c725c0d4075973ab3c581f0d16cce112ab4ed4b26b9ddaa3883360405161114292919061341f565b60405180910390a15b7f0ce627ddf6b4fdb8de00ae62e2f2b8dee6a4226b75fccd3d6692329c8e0d2c1c88338560405161117e939291906134be565b60405180910390a13373ffffffffffffffffffffffffffffffffffffffff166108fc849081150290604051600060405180830381858888f193505050501580156111cc573d6000803e3d6000fd5b505b5050505050505050505050565b826003548110611220576040517f08c379a000000000000000000000000000000000000000000000000000000000815260040161121790613391565b60405180910390fd5b83600115156002600083815260200190815260200160002060040160009054906101000a900460ff1615151461128b576040517f08c379a000000000000000000000000000000000000000000000000000000000815260040161128290613567565b60405180910390fd5b843373ffffffffffffffffffffffffffffffffffffffff166002600083815260200190815260200160002060010160009054906101000a900473ffffffffffffffffffffffffffffffffffffffff1673ffffffffffffffffffffffffffffffffffffffff1614611330576040517f08c379a000000000000000000000000000000000000000000000000000000000815260040161132790612f65565b60405180910390fd5b60026000878152602001908152602001600020600b01546002611353919061347c565b3414611394576040517f08c379a000000000000000000000000000000000000000000000000000000000815260040161138b906135f9565b60405180910390fd5b848460026000898152602001908152602001600020600c0191826113b99291906137b1565b507f45bd963234a41bc8d75b2e2caf57f0987f5d405e1d4bbf09b919faeff927937c8686866040516113ed939291906133ed565b60405180910390a1505050505050565b60008173ffffffffffffffffffffffffffffffffffffffff16319050919050565b606060008060045467ffffffffffffffff81111561143f5761143e612d41565b5b60405190808252806020026020018201604052801561147857816020015b61146561247b565b81526020019060019003908161145d5790505b50905060005b60035481101561176157600015156002600083815260200190815260200160002060040160009054906101000a900460ff1615150361174e576000600260008381526020019081526020016000209050604051806101200160405280826000015481526020018260010160009054906101000a900473ffffffffffffffffffffffffffffffffffffffff1673ffffffffffffffffffffffffffffffffffffffff16815260200182600201548152602001826003015481526020018260040160009054906101000a900460ff161515815260200182600501805461156090612d9f565b80601f016020809104026020016040519081016040528092919081815260200182805461158c90612d9f565b80156115d95780601f106115ae576101008083540402835291602001916115d9565b820191906000526020600020905b8154815290600101906020018083116115bc57829003601f168201915b505050505081526020018260060180546115f290612d9f565b80601f016020809104026020016040519081016040528092919081815260200182805461161e90612d9f565b801561166b5780601f106116405761010080835404028352916020019161166b565b820191906000526020600020905b81548152906001019060200180831161164e57829003601f168201915b5050505050815260200182600f0160003373ffffffffffffffffffffffffffffffffffffffff1673ffffffffffffffffffffffffffffffffffffffff16815260200190815260200160002060009054906101000a900460ff16151581526020018260100160003373ffffffffffffffffffffffffffffffffffffffff1673ffffffffffffffffffffffffffffffffffffffff16815260200190815260200160002060009054906101000a900460ff16151581525083858151811061173257611731612dd0565b5b602002602001018190525060018461174a9190613448565b9350505b808061175990612e2e565b91505061147e565b50809250505090565b60026000848152602001908152602001600020600201548042106117c3576040517f08c379a00000000000000000000000000000000000000000000000000000000081526004016117ba9061326d565b60405180910390fd5b836002600082815260200190815260200160002060010160009054906101000a900473ffffffffffffffffffffffffffffffffffffffff1673ffffffffffffffffffffffffffffffffffffffff163373ffffffffffffffffffffffffffffffffffffffff1603611868576040517f08c379a000000000000000000000000000000000000000000000000000000000815260040161185f906138cd565b60405180910390fd5b8460026000828152602001908152602001600020600f0160003373ffffffffffffffffffffffffffffffffffffffff1673ffffffffffffffffffffffffffffffffffffffff16815260200190815260200160002060009054906101000a900460ff161561190a576040517f08c379a000000000000000000000000000000000000000000000000000000000815260040161190190613939565b60405180910390fd5b85600354811061194f576040517f08c379a000000000000000000000000000000000000000000000000000000000815260040161194690613391565b60405180910390fd5b60405180604001604052808981526020013481525060026000898152602001908152602001600020600d0160003373ffffffffffffffffffffffffffffffffffffffff1673ffffffffffffffffffffffffffffffffffffffff1681526020019081526020016000206000820151816000015560208201518160010155905050600160026000898152602001908152602001600020600f0160003373ffffffffffffffffffffffffffffffffffffffff1673ffffffffffffffffffffffffffffffffffffffff16815260200190815260200160002060006101000a81548160ff0219169083151502179055508585600260008a815260200190815260200160002060110160003373ffffffffffffffffffffffffffffffffffffffff1673ffffffffffffffffffffffffffffffffffffffff1681526020019081526020016000209182611a9c9291906137b1565b507f4b6c7d33d8244d6b35f1a8d35f6d19860fea50d46740345c395123753dd782fa33604051611acc9190613959565b60405180910390a15050505050505050565b60006003549050600160036000828254611af89190613448565b92505081905550600160046000828254611b129190613448565b9250508190555060008342611b279190613448565b905060008382611b379190613448565b9050600060016000806000815480929190611b5190612e2e565b919050558152602001908152602001600020905060008160040160006101000a81548160ff02191690831515021790555060008160070160006101000a81548160ff0219169083151502179055508060070160019054906101000a9050506000816008018190555080600a0160009054906101000a9050507f58c55e05f36335d586220e73c744c2bee55b978dc632f7bae51fd53b68b967de848b8b8b8b604051611c00959493929190613974565b60405180910390a17f407f117d881ed92fbecf3649fb9568d7191c91329e6cef0cb5fc97916ef0cead8484604051611c399291906139bd565b60405180910390a150505050505050505050565b806003548110611c92576040517f08c379a0000000000000000000000000000000000000000000000000000000008152600401611c8990613391565b60405180910390fd5b8160026000828152602001908152602001600020600a0160009054906101000a900473ffffffffffffffffffffffffffffffffffffffff1673ffffffffffffffffffffffffffffffffffffffff163373ffffffffffffffffffffffffffffffffffffffff1614611d37576040517f08c379a0000000000000000000000000000000000000000000000000000000008152600401611d2e90613a32565b60405180910390fd5b82600115156002600083815260200190815260200160002060040160009054906101000a900460ff16151514611da2576040517f08c379a0000000000000000000000000000000000000000000000000000000008152600401611d9990613567565b60405180910390fd5b600060026000868152602001908152602001600020600b015490506000816003611dcc919061347c565b9050600060026000888152602001908152602001600020600e016000600260008a8152602001908152602001600020600a0160009054906101000a900473ffffffffffffffffffffffffffffffffffffffff1673ffffffffffffffffffffffffffffffffffffffff1673ffffffffffffffffffffffffffffffffffffffff1681526020019081526020016000208190555060016002600088815260200190815260200160002060070160006101000a81548160ff0219169083151502179055506002600087815260200190815260200160002060010160009054906101000a900473ffffffffffffffffffffffffffffffffffffffff1673ffffffffffffffffffffffffffffffffffffffff166108fc829081150290604051600060405180830381858888f19350505050158015611f08573d6000803e3d6000fd5b5060026000878152602001908152602001600020600a0160009054906101000a900473ffffffffffffffffffffffffffffffffffffffff1673ffffffffffffffffffffffffffffffffffffffff166108fc839081150290604051600060405180830381858888f19350505050158015611f85573d6000803e3d6000fd5b507f6cbc019d5c94717baad0acdfa06c66c2a314a9f71c5486a1034adb0f07a57e6586604051611fb59190612a25565b60405180910390a1505050505050565b81600115156002600083815260200190815260200160002060040160009054906101000a900460ff16151514612030576040517f08c379a000000000000000000000000000000000000000000000000000000000815260040161202790613567565b60405180910390fd5b600060026000858152602001908152602001600020600e0160008473ffffffffffffffffffffffffffffffffffffffff1673ffffffffffffffffffffffffffffffffffffffff1681526020019081526020016000205411156121c757600060026000858152602001908152602001600020600e0160008473ffffffffffffffffffffffffffffffffffffffff1673ffffffffffffffffffffffffffffffffffffffff168152602001908152602001600020549050600060026000868152602001908152602001600020600e0160008573ffffffffffffffffffffffffffffffffffffffff1673ffffffffffffffffffffffffffffffffffffffff1681526020019081526020016000208190555060008390508073ffffffffffffffffffffffffffffffffffffffff166108fc839081150290604051600060405180830381858888f19350505050158015612188573d6000803e3d6000fd5b507fa01ed4ff1bfc084518bd795b4114da41c800c9ae1fc5e594cb505cb4c0c3fae18585846040516121bc93929190613105565b60405180910390a150505b505050565b6000600260008581526020019081526020016000206008015482116121f457600090506123d1565b600073ffffffffffffffffffffffffffffffffffffffff166002600086815260200190815260200160002060070160019054906101000a900473ffffffffffffffffffffffffffffffffffffffff1673ffffffffffffffffffffffffffffffffffffffff16146123215760026000858152602001908152602001600020600801546002612281919061347c565b60026000868152602001908152602001600020600e0160006002600088815260200190815260200160002060070160019054906101000a900473ffffffffffffffffffffffffffffffffffffffff1673ffffffffffffffffffffffffffffffffffffffff1673ffffffffffffffffffffffffffffffffffffffff16815260200190815260200160002060008282546123199190613448565b925050819055505b816002600086815260200190815260200160002060080181905550826002600086815260200190815260200160002060070160016101000a81548173ffffffffffffffffffffffffffffffffffffffff021916908373ffffffffffffffffffffffffffffffffffffffff1602179055507ff13cb67d4c8841d2c893b242b7d61382d8e3bb53c5c58a8584106e74e8c4721b8484846040516123c493929190613105565b60405180910390a1600190505b9392505050565b604051806101c0016040528060008152602001600073ffffffffffffffffffffffffffffffffffffffff168152602001600073ffffffffffffffffffffffffffffffffffffffff168152602001600081526020016000815260200160001515815260200160001515815260200160608152602001606081526020016000151581526020016000151581526020016000815260200160608152602001606081525090565b60405180610120016040528060008152602001600073ffffffffffffffffffffffffffffffffffffffff168152602001600081526020016000815260200160001515815260200160608152602001606081526020016000151581526020016000151581525090565b600081519050919050565b600082825260208201905092915050565b6000819050602082019050919050565b6000819050919050565b6125228161250f565b82525050565b600073ffffffffffffffffffffffffffffffffffffffff82169050919050565b600061255382612528565b9050919050565b61256381612548565b82525050565b60008115159050919050565b61257e81612569565b82525050565b600081519050919050565b600082825260208201905092915050565b60005b838110156125be5780820151818401526020810190506125a3565b60008484015250505050565b6000601f19601f8301169050919050565b60006125e682612584565b6125f0818561258f565b93506126008185602086016125a0565b612609816125ca565b840191505092915050565b60006101c08301600083015161262d6000860182612519565b506020830151612640602086018261255a565b506040830151612653604086018261255a565b5060608301516126666060860182612519565b5060808301516126796080860182612519565b5060a083015161268c60a0860182612575565b5060c083015161269f60c0860182612575565b5060e083015184820360e08601526126b782826125db565b9150506101008301518482036101008601526126d382826125db565b9150506101208301516126ea610120860182612575565b506101408301516126ff610140860182612575565b50610160830151612714610160860182612519565b5061018083015184820361018086015261272e82826125db565b9150506101a08301518482036101a086015261274a82826125db565b9150508091505092915050565b60006127638383612614565b905092915050565b6000602082019050919050565b6000612783826124e3565b61278d81856124ee565b93508360208202850161279f856124ff565b8060005b858110156127db57848403895281516127bc8582612757565b94506127c78361276b565b925060208a019950506001810190506127a3565b50829750879550505050505092915050565b600060208201905081810360008301526128078184612778565b905092915050565b600080fd5b600080fd5b6128228161250f565b811461282d57600080fd5b50565b60008135905061283f81612819565b92915050565b60006020828403121561285b5761285a61280f565b5b600061286984828501612830565b91505092915050565b600080fd5b600080fd5b600080fd5b60008083601f84011261289757612896612872565b5b8235905067ffffffffffffffff8111156128b4576128b3612877565b5b6020830191508360018202830111156128d0576128cf61287c565b5b9250929050565b600080600080606085870312156128f1576128f061280f565b5b60006128ff87828801612830565b945050602085013567ffffffffffffffff8111156129205761291f612814565b5b61292c87828801612881565b9350935050604061293f87828801612830565b91505092959194509250565b6000806000604084860312156129645761296361280f565b5b600061297286828701612830565b935050602084013567ffffffffffffffff81111561299357612992612814565b5b61299f86828701612881565b92509250509250925092565b60006129b682612528565b9050919050565b6129c6816129ab565b81146129d157600080fd5b50565b6000813590506129e3816129bd565b92915050565b6000602082840312156129ff576129fe61280f565b5b6000612a0d848285016129d4565b91505092915050565b612a1f8161250f565b82525050565b6000602082019050612a3a6000830184612a16565b92915050565b600081519050919050565b600082825260208201905092915050565b6000819050602082019050919050565b600061012083016000830151612a856000860182612519565b506020830151612a98602086018261255a565b506040830151612aab6040860182612519565b506060830151612abe6060860182612519565b506080830151612ad16080860182612575565b5060a083015184820360a0860152612ae982826125db565b91505060c083015184820360c0860152612b0382826125db565b91505060e0830151612b1860e0860182612575565b50610100830151612b2d610100860182612575565b508091505092915050565b6000612b448383612a6c565b905092915050565b6000602082019050919050565b6000612b6482612a40565b612b6e8185612a4b565b935083602082028501612b8085612a5c565b8060005b85811015612bbc5784840389528151612b9d8582612b38565b9450612ba883612b4c565b925060208a01995050600181019050612b84565b50829750879550505050505092915050565b60006020820190508181036000830152612be88184612b59565b905092915050565b6000819050919050565b612c0381612bf0565b8114612c0e57600080fd5b50565b600081359050612c2081612bfa565b92915050565b60008060008060608587031215612c4057612c3f61280f565b5b6000612c4e87828801612c11565b9450506020612c5f87828801612830565b935050604085013567ffffffffffffffff811115612c8057612c7f612814565b5b612c8c87828801612881565b925092505092959194509250565b60008060008060008060808789031215612cb757612cb661280f565b5b600087013567ffffffffffffffff811115612cd557612cd4612814565b5b612ce189828a01612881565b9650965050602087013567ffffffffffffffff811115612d0457612d03612814565b5b612d1089828a01612881565b94509450506040612d2389828a01612830565b9250506060612d3489828a01612830565b9150509295509295509295565b7f4e487b7100000000000000000000000000000000000000000000000000000000600052604160045260246000fd5b7f4e487b7100000000000000000000000000000000000000000000000000000000600052602260045260246000fd5b60006002820490506001821680612db757607f821691505b602082108103612dca57612dc9612d70565b5b50919050565b7f4e487b7100000000000000000000000000000000000000000000000000000000600052603260045260246000fd5b7f4e487b7100000000000000000000000000000000000000000000000000000000600052601160045260246000fd5b6000612e398261250f565b91507fffffffffffffffffffffffffffffffffffffffffffffffffffffffffffffffff8203612e6b57612e6a612dff565b5b600182019050919050565b600082825260208201905092915050565b7f6265666f72652074696d65000000000000000000000000000000000000000000600082015250565b6000612ebd600b83612e76565b9150612ec882612e87565b602082019050919050565b60006020820190508181036000830152612eec81612eb0565b9050919050565b7f4f6e6c792042656e65666963696172792063616e20656e64207468652061756360008201527f74696f6e00000000000000000000000000000000000000000000000000000000602082015250565b6000612f4f602483612e76565b9150612f5a82612ef3565b604082019050919050565b60006020820190508181036000830152612f7e81612f42565b9050919050565b7f41756374696f6e20616c726561647920656e6465640000000000000000000000600082015250565b6000612fbb601583612e76565b9150612fc682612f85565b602082019050919050565b60006020820190508181036000830152612fea81612fae565b9050919050565b612ffa816129ab565b82525050565b6000819050919050565b6000819050919050565b600061302f61302a61302584613000565b61300a565b61250f565b9050919050565b61303f81613014565b82525050565b600060608201905061305a6000830186612a16565b6130676020830185612ff1565b6130746040830184613036565b949350505050565b60006130878261250f565b91506130928361250f565b92508282039050818111156130aa576130a9612dff565b5b92915050565b60006130cb6130c66130c184612528565b61300a565b612528565b9050919050565b60006130dd826130b0565b9050919050565b60006130ef826130d2565b9050919050565b6130ff816130e4565b82525050565b600060608201905061311a6000830186612a16565b61312760208301856130f6565b6131346040830184612a16565b949350505050565b60008190508160005260206000209050919050565b6000815461315e81612d9f565b6131688186612e76565b945060018216600081146131835760018114613199576131cc565b60ff1983168652811515602002860193506131cc565b6131a28561313c565b60005b838110156131c4578154818901526001820191506020810190506131a5565b808801955050505b50505092915050565b60006080820190506131ea6000830187612a16565b6131f760208301866130f6565b81810360408301526132098185613151565b90506132186060830184612a16565b95945050505050565b7f41667465722074696d6500000000000000000000000000000000000000000000600082015250565b6000613257600a83612e76565b915061326282613221565b602082019050919050565b600060208201905081810360008301526132868161324a565b9050919050565b7f4469646e277420706c6163652061206265742c6e6f20706f696e7420696e207260008201527f657665616c696e67207468652062696400000000000000000000000000000000602082015250565b60006132e9603083612e76565b91506132f48261328d565b604082019050919050565b60006020820190508181036000830152613318816132dc565b9050919050565b7f41756374696f6e2049642070726f766964656420646f65736e2774206578697360008201527f7400000000000000000000000000000000000000000000000000000000000000602082015250565b600061337b602183612e76565b91506133868261331f565b604082019050919050565b600060208201905081810360008301526133aa8161336e565b9050919050565b82818337600083830152505050565b60006133cc8385612e76565b93506133d98385846133b1565b6133e2836125ca565b840190509392505050565b60006040820190506134026000830186612a16565b81810360208301526134158184866133c0565b9050949350505050565b60006040820190506134346000830185612a16565b6134416020830184612ff1565b9392505050565b60006134538261250f565b915061345e8361250f565b925082820190508082111561347657613475612dff565b5b92915050565b60006134878261250f565b91506134928361250f565b92508282026134a08161250f565b915082820484148315176134b7576134b6612dff565b5b5092915050565b60006060820190506134d36000830186612a16565b6134e06020830185612ff1565b6134ed6040830184612a16565b949350505050565b7f43616e742041736b20726566756e642c61756374696f6e206e6f7420656e646560008201527f6400000000000000000000000000000000000000000000000000000000000000602082015250565b6000613551602183612e76565b915061355c826134f5565b604082019050919050565b6000602082019050818103600083015261358081613544565b9050919050565b7f596f752068617665206e6f74207061696420726967687420746865207365637560008201527f72697479206465706f7369740000000000000000000000000000000000000000602082015250565b60006135e3602c83612e76565b91506135ee82613587565b604082019050919050565b60006020820190508181036000830152613612816135d6565b9050919050565b600082905092915050565b60006020601f8301049050919050565b600082821b905092915050565b6000600883026136717fffffffffffffffffffffffffffffffffffffffffffffffffffffffffffffffff82613634565b61367b8683613634565b95508019841693508086168417925050509392505050565b60006136ae6136a96136a48461250f565b61300a565b61250f565b9050919050565b6000819050919050565b6136c883613693565b6136dc6136d4826136b5565b848454613641565b825550505050565b600090565b6136f16136e4565b6136fc8184846136bf565b505050565b5b81811015613720576137156000826136e9565b600181019050613702565b5050565b601f821115613765576137368161313c565b61373f84613624565b8101602085101561374e578190505b61376261375a85613624565b830182613701565b50505b505050565b600082821c905092915050565b60006137886000198460080261376a565b1980831691505092915050565b60006137a18383613777565b9150826002028217905092915050565b6137bb8383613619565b67ffffffffffffffff8111156137d4576137d3612d41565b5b6137de8254612d9f565b6137e9828285613724565b6000601f8311600181146138185760008415613806578287013590505b6138108582613795565b865550613878565b601f1984166138268661313c565b60005b8281101561384e57848901358255600182019150602085019450602081019050613829565b8683101561386b5784890135613867601f891682613777565b8355505b6001600288020188555050505b50505050505050565b7f42656e65666963696172792063616e6e6f742062696400000000000000000000600082015250565b60006138b7601683612e76565b91506138c282613881565b602082019050919050565b600060208201905081810360008301526138e6816138aa565b9050919050565b7f42696464657220416c726561647920706c616365642074686569722062696400600082015250565b6000613923601f83612e76565b915061392e826138ed565b602082019050919050565b6000602082019050818103600083015261395281613916565b9050919050565b600060208201905061396e6000830184612ff1565b92915050565b60006060820190506139896000830188612a16565b818103602083015261399c8186886133c0565b905081810360408301526139b18184866133c0565b90509695505050505050565b60006040820190506139d26000830185612a16565b6139df6020830184612a16565b9392505050565b7f4f6e6c792057696e6e65722063616e20636f6e6669726d207075726368617365600082015250565b6000613a1c602083612e76565b9150613a27826139e6565b602082019050919050565b60006020820190508181036000830152613a4b81613a0f565b905091905056fea2646970667358221220a64ebf36341f8263d9c3b187d2097569336e16e32a3dd98e46b0a70e4ed998f864736f6c63430008110033",
  "immutableReferences": {},
  "source": "/// SPDX-License-Identifier: MIT\r\npragma solidity >=0.4.22 <0.9.0;\r\n\r\n/// @title The contract for buying and selling items on a market\r\ncontract BlindAuction {\r\n    // Important Structures\r\n\r\n    ///@dev stores the blinded bid\r\n    ///@param bidHash stores the bid hashed using the public pub_key\r\n    ///@param deposit stores the deposited amount\r\n    struct Bid {\r\n        bytes32 bidHash;\r\n        uint256 deposit;\r\n    }\r\n\r\n    /// @dev structure for each Auction item\r\n    /// @param auction_id unique id for the items\r\n    /// @param beneficiary the seller\r\n    /// @param biddingEnd time the bidding end\r\n    /// @param revealEnd time when reveal period is over\r\n    /// @param ended shows the auction ended\r\n    /// @param item_name shows name of the item\r\n    /// @param item_description description of the item\r\n    /// @param bids stores the list of bids indexed by address\r\n    /// @param sold bool to denote whether the item is sold or not\r\n    /// @param highestBidder address of the highest bidder\r\n    /// @param highestBid value of the highest bid\r\n    /// @param revealedBidders the array to store bidders who reveal their bid to return their due after auction is over\r\n    /// @param pendingReturns the value to return to each bidder\r\n    /// @param bidded the boolean to track which addresses have bidded.\r\n    /// @param revealed the boolean to track which addresses have revealed.\r\n    /// @param pubkey stores the pubkeys of the bidders sent over with the bids\r\n    /// @param H secret string to sell item encrypted with buyer's public key\r\n    struct auctions {\r\n        uint256 auction_id;\r\n        address payable beneficiary;\r\n        uint256 biddingEnd;\r\n        uint256 revealEnd;\r\n        bool ended;\r\n        string item_name;\r\n        string item_description;\r\n        bool sold;\r\n        address payable highestBidder;\r\n        uint256 highestBid;\r\n        address payable[] revealedBidders;\r\n        address payable winner;\r\n        uint256 winningBid;\r\n        string H;\r\n        mapping(address => Bid) bids;\r\n        // Allowed withdrawals of previous bids\r\n        mapping(address => uint256) pendingReturns;\r\n        mapping(address => bool) bidded;\r\n        mapping(address => bool) revealed;\r\n        mapping(address => string) pubkey;\r\n    }\r\n    uint numRequests;\r\n    mapping (uint => auctions) rq;\r\n\r\n    /// @dev structure for each display active Auction Listings\r\n    /// @param auction_id unique id for the items\r\n    /// @param beneficiary address of the owner of item to be auctioned\r\n    /// @param biddingEnd time the bidding end\r\n    /// @param revealEnd time when reveal period is over\r\n    /// @param ended shows the auction ended\r\n    /// @param item_name shows name of the item\r\n    /// @param item_description description of the item\r\n    /// @param bidplaced bool to tell whether the person calling the function bidded or not\r\n    /// @param revealed bool to tell whether the person calling the revealed their bid or not\r\n    struct auction_active_listings {\r\n        uint256 auction_id;\r\n        address payable beneficiary;\r\n        uint256 biddingEnd;\r\n        uint256 revealEnd;\r\n        bool ended;\r\n        string item_name;\r\n        string item_description;\r\n        bool bidplaced;\r\n        bool revealed;\r\n    }\r\n\r\n    /// @dev structure for each display Auction Listings\r\n    /// @param auction_id unique id for the items\r\n    /// @param beneficiary address of the owner of item to be auctioned\r\n    /// @param winner address of the winner of the auction\r\n    /// @param biddingEnd time the bidding end\r\n    /// @param revealEnd time when reveal period is over\r\n    /// @param ended shows the auction ended\r\n    /// @param item_name shows name of the item\r\n    /// @param item_description description of the item\r\n    /// @param bidplaced bool to tell whether the person calling the function bidded or not\r\n    /// @param revealed bool to tell whether the person calling the revealed their bid or not\r\n    /// @param finalBid the final price at which the item was sold\r\n    /// @param pubkey public key of the winner\r\n    /// @param H secret string to sell item encrypted with buyer's public key\r\n    struct auction_all_listings {\r\n        uint256 auction_id;\r\n        address payable beneficiary;\r\n        address payable winner;\r\n        uint256 biddingEnd;\r\n        uint256 revealEnd;\r\n        bool ended;\r\n        bool sold;\r\n        string item_name;\r\n        string item_description;\r\n        bool bidplaced;\r\n        bool revealed;\r\n        uint256 finalBid;\r\n        string pubkey;\r\n        string H;\r\n    }\r\n\r\n    // Errors that describe failures.\r\n\r\n    /// The function has been called too early.\r\n    /// Try again at `time`.\r\n    //error TooEarly(uint time);\r\n    /// The function has been called too late.\r\n    /// It cannot be called after `time`.\r\n    //error TooLate(uint time);\r\n    /// The function auctionEnd has already been called.\r\n    //error AuctionEndAlreadyCalled();\r\n\r\n    /// EVENTS\r\n\r\n    /// @dev this event is for when auction item is for when item for auction is listed\r\n    /// @param Auction_id id of the auction\r\n    /// @param item_name  name of the item to be Auction\r\n    /// @param item_description  description of the item to be auctioned\r\n    event AuctionStarted(\r\n        uint256 Auction_id,\r\n        string item_name,\r\n        string item_description\r\n    );\r\n\r\n    /// @dev this event to annouce auction started\r\n    /// @param Auction_id is the id of the auction\r\n    /// @param highestBidder is the address of the highest Bidder\r\n    /// @param highestBid is the value of the winning bid\r\n    event AuctionEnded(\r\n        uint256 Auction_id,\r\n        address highestBidder,\r\n        uint256 highestBid\r\n    );\r\n\r\n    ///@dev when an item goes unsold at the end of the auction\r\n    ///@param auction_id is the id of the auction\r\n    event ItemUnsold(uint256 auction_id);\r\n\r\n    /// @dev this event to annouce bidding started\r\n    /// @param Auction_id is the id of the auction\r\n    /// @param bidding_end is the time when bidding period ends\r\n    event BiddingStarted(uint256 Auction_id, uint256 bidding_end);\r\n\r\n    /// @dev this event to annouce bidding period ended\r\n    /// @param Auction_id is the id of the auction\r\n    event BiddingPeriodEnded(uint256 Auction_id);\r\n\r\n    /// @dev announcement of a new\r\n    /// @param bidder address of the bidder\r\n    event BidMade(address bidder);\r\n\r\n    ///@dev announcement to start revealing bids\r\n    /// @param Auction_id id of the auction item\r\n    /// @param reveal_end is the time when revealing period ends\r\n    event RevealPeriodStarted(uint256 Auction_id, uint256 reveal_end);\r\n\r\n    ///@dev annouce to end revealing period\r\n    /// @param Auction_id id of the auction\r\n    event RevealPeriodEnded(uint256 Auction_id);\r\n\r\n    ///@dev announce winner\r\n    /// @param Auction_id is the id of the auction\r\n    /// @param winner is the address of the winner\r\n    ///@param pubkey is the public key of the winner\r\n    ///@param winningBid is the value of the winning bid\r\n    event WinnerChosen(\r\n        uint256 Auction_id,\r\n        address winner,\r\n        string pubkey,\r\n        uint256 winningBid\r\n    );\r\n\r\n    ///@dev bid revealed\r\n    ///@param Auction_id is the id of the auction\r\n    ///@param bidder is the address of the revealer\r\n    event BidRevealed(uint256 Auction_id, address bidder);\r\n\r\n    ///@dev bid revealed failed\r\n    ///@param Auction_id is the id of the auction\r\n    ///@param bidder is the address of the revealer\r\n    event BidRevealFailed(uint256 Auction_id, address bidder);\r\n\r\n    ///@dev event to notify Refunds of bids\r\n    ///@param auction_id is the id of the auction\r\n    ///@param bidder is the address of the revealer\r\n    ///@param bid_value  refers to whether the bid is succesfully revealed and refund done\r\n    event BidderRefunded(uint256 auction_id, address bidder, uint256 bid_value);\r\n\r\n    ///@dev event to notify Refunds of bids\r\n    ///@param auction_id is the id of the auction\r\n    ///@param bidder is the address of the revealer\r\n    ///@param balance  refers to whether the bid is succesfully revealed and refund done\r\n    event BalanceRefunded(uint256 auction_id, address bidder, uint256 balance);\r\n\r\n    ///@dev event to notify when the deposit is not enough\r\n    ///@param auction_id is the id of the auction\r\n    ///@param bidder is the bidder\r\n    event DepositNotEnough(uint256 auction_id, address bidder);\r\n\r\n    ///@dev to notify highest Bid has been modified\r\n    ///@param auction_id is the id of the auction\r\n    ///@param bidder is the bidder\r\n    ///@param bid_value refers to the bid\r\n    event NewHighestBid(uint256 auction_id, address bidder, uint256 bid_value);\r\n\r\n    ///@dev event to send the hashed Item\r\n    ///@param auction_id is the id of the auction\r\n    ///@param H is the hashed passwords\r\n    event encryptedKey(uint256 auction_id, string H);\r\n\r\n    ///@dev to confirm delivery\r\n    ///@param auction_id is the id of the auction\r\n    event deliveryComplete(uint256 auction_id);\r\n\r\n    /// @dev create a lists of all auctions\r\n    mapping(uint256 => auctions) private Auctions;\r\n\r\n    // variables for managing auctions\r\n    uint256 current_auction_id = 0;\r\n    uint256 activeauctions = 0;\r\n\r\n    //MODIFIERS\r\n\r\n    /// @notice Check whether a given condition is true\r\n    /// @param _condition condition statement to verify.\r\n    modifier condition(bool _condition) {\r\n        require(_condition);\r\n        _;\r\n    }\r\n\r\n    modifier onlyBefore(uint256 _time) {\r\n        require(block.timestamp < _time, \"After time\");\r\n        // require(\r\n        //     block.timestamp < _time,\r\n        //     integersToString(block.timestamp, _time)\r\n        // );\r\n        _;\r\n    }\r\n    modifier onlyAfter(uint256 _time) {\r\n        require(block.timestamp > _time, \"before time\");\r\n        _;\r\n    }\r\n\r\n    modifier validBidder(uint256 auction_id) {\r\n        require(\r\n            msg.sender != Auctions[auction_id].beneficiary,\r\n            \"Beneficiary cannot bid\"\r\n        );\r\n        _;\r\n    }\r\n    modifier newBidder(uint256 auction_id) {\r\n        require(\r\n            !Auctions[auction_id].bidded[msg.sender],\r\n            \"Bidder Already placed their bid\"\r\n        );\r\n        _;\r\n    }\r\n\r\n    modifier alreadyBidder(uint256 auction_id) {\r\n        require(\r\n            Auctions[auction_id].bidded[msg.sender] == true,\r\n            \"Didn't place a bet,no point in revealing the bid\"\r\n        );\r\n        _;\r\n    }\r\n\r\n    modifier onlyBeneficiary(uint256 auction_id) {\r\n        require(\r\n            Auctions[auction_id].beneficiary == msg.sender,\r\n            \"Only Beneficiary can end the auction\"\r\n        );\r\n        _;\r\n    }\r\n    modifier auctionActive(uint256 auction_id) {\r\n        require(Auctions[auction_id].ended == false, \"Auction already ended\");\r\n        _;\r\n    }\r\n    modifier auctionEnded(uint256 auction_id) {\r\n        require(\r\n            Auctions[auction_id].ended == true,\r\n            \"Cant Ask refund,auction not ended\"\r\n        );\r\n        _;\r\n    }\r\n    modifier validAuctionId(uint256 auction_id) {\r\n        require(\r\n            auction_id < current_auction_id,\r\n            \"Auction Id provided doesn't exist\"\r\n        );\r\n        _;\r\n    }\r\n    modifier onlyWinner(uint256 auction_id) {\r\n        require(\r\n            msg.sender == Auctions[auction_id].winner,\r\n            \"Only Winner can confirm purchase\"\r\n        );\r\n        _;\r\n    }\r\n\r\n    //functions\r\n\r\n    /// @notice returns balance of account\r\n    /// @param account Address of the account.\r\n    function getAccountBalance(address account)\r\n        public\r\n        view\r\n        returns (uint256 accountBalance)\r\n    {\r\n        accountBalance = account.balance;\r\n    }\r\n\r\n    /// @dev function to list the auction of a new item\r\n    /// @param item_name name of the item\r\n    /// @param item_description is the description of the item\r\n    /// @param bidding_time how long the bidding will go\r\n    /// @param reveal_time how long the reveal will go\r\n    function auctionItem(\r\n        string calldata item_name,\r\n        string calldata item_description,\r\n        uint256 bidding_time,\r\n        uint256 reveal_time\r\n    ) external payable {\r\n        uint256 auction_id = current_auction_id;\r\n        current_auction_id += 1;\r\n        activeauctions += 1;\r\n        uint256 bidding_end = block.timestamp + bidding_time;\r\n        uint256 reveal_end = bidding_end + reveal_time;\r\n\r\n        auctions storage n = rq[numRequests++];\r\n            n.auction_id;\r\n            payable (msg.sender);\r\n            n.biddingEnd;\r\n            n.revealEnd;\r\n            n.ended = false;\r\n            n.item_name;\r\n            n.item_description;\r\n            n.sold = false;\r\n            n.highestBidder;\r\n            n.highestBid = 0;\r\n            n.revealedBidders;\r\n            n.winner;\r\n            n.winningBid;\r\n            n.H;\r\n        emit AuctionStarted(auction_id, item_name, item_description);\r\n        emit BiddingStarted(auction_id, bidding_end);\r\n    }\r\n\r\n    // function to to get a list of all active auctions\r\n    /// @notice Get all the active auction listings items in the market\r\n    /// @return a list of active auction listings\r\n    function getactiveauctions()\r\n        external\r\n        view\r\n        returns (auction_active_listings[] memory)\r\n    {\r\n        uint256 currentIndex = 0;\r\n        auction_active_listings[]\r\n            memory active_auctions = new auction_active_listings[](\r\n                activeauctions\r\n            );\r\n        for (uint256 i = 0; i < current_auction_id; i++) {\r\n            if (Auctions[i].ended == false) {\r\n                auctions storage currentauction = Auctions[i];\r\n                active_auctions[currentIndex] = auction_active_listings(\r\n                    currentauction.auction_id,\r\n                    currentauction.beneficiary,\r\n                    currentauction.biddingEnd,\r\n                    currentauction.revealEnd,\r\n                    currentauction.ended,\r\n                    currentauction.item_name,\r\n                    currentauction.item_description,\r\n                    currentauction.bidded[msg.sender],\r\n                    currentauction.revealed[msg.sender]\r\n                );\r\n                currentIndex += 1;\r\n            }\r\n        }\r\n        return active_auctions;\r\n    }\r\n\r\n    // function to to get a list of all auctions\r\n    /// @notice Get all the auction listings items in the market\r\n    /// @return a list of all auction listings\r\n    function getallauctions()\r\n        external\r\n        view\r\n        returns (auction_all_listings[] memory)\r\n    {\r\n        auction_all_listings[] memory all_auctions = new auction_all_listings[](\r\n            current_auction_id\r\n        );\r\n        for (uint256 i = 0; i < current_auction_id; i++) {\r\n            auctions storage currentauction = Auctions[i];\r\n            string memory pubkey = \"\";\r\n            if (currentauction.highestBidder != address(0))\r\n                pubkey = currentauction.pubkey[currentauction.highestBidder];\r\n            all_auctions[i] = auction_all_listings(\r\n                currentauction.auction_id,\r\n                currentauction.beneficiary,\r\n                currentauction.highestBidder,\r\n                currentauction.biddingEnd,\r\n                currentauction.revealEnd,\r\n                currentauction.ended,\r\n                currentauction.sold,\r\n                currentauction.item_name,\r\n                currentauction.item_description,\r\n                currentauction.bidded[msg.sender],\r\n                currentauction.revealed[msg.sender],\r\n                currentauction.highestBid,\r\n                pubkey,\r\n                currentauction.H\r\n            );\r\n        }\r\n        return all_auctions;\r\n    }\r\n\r\n    // function that can be used to bid in an auction\r\n    /// @param blindedBid is the hashed version of bid\r\n    /// @param auction_id is the id of the auction\r\n    ///@param pubkey is the public key of the bidder\r\n    function bid(\r\n        bytes32 blindedBid,\r\n        uint256 auction_id,\r\n        string calldata pubkey\r\n    )\r\n        external\r\n        payable\r\n        onlyBefore(Auctions[auction_id].biddingEnd)\r\n        validBidder(auction_id)\r\n        newBidder(auction_id)\r\n        validAuctionId(auction_id)\r\n    {\r\n        Auctions[auction_id].bids[msg.sender] = Bid(blindedBid, msg.value);\r\n        Auctions[auction_id].bidded[msg.sender] = true;\r\n        Auctions[auction_id].pubkey[msg.sender] = pubkey;\r\n        emit BidMade(msg.sender);\r\n    }\r\n\r\n    /// @dev Reveal your blinded bids. You will get a refund for all\r\n    /// @dev correctly blinded invalid bids and for all bids except for\r\n    /// @dev the totally highest.\r\n    /// @param value value of the bid\r\n    /// @param secret again not sure\r\n    /// @param auction_id id of the auction\r\n    function reveal(\r\n        uint256 value,\r\n        //bool fake,\r\n        string calldata secret,\r\n        uint256 auction_id\r\n    )\r\n        external\r\n        payable\r\n        onlyAfter(Auctions[auction_id].biddingEnd)\r\n        onlyBefore(Auctions[auction_id].revealEnd)\r\n        alreadyBidder(auction_id)\r\n        validAuctionId(auction_id)\r\n    {\r\n        uint256 refund = 0;\r\n        bool success = false;\r\n        //get the bid placed by the user\r\n        Bid storage bidToCheck = Auctions[auction_id].bids[msg.sender];\r\n\r\n        // improper revealing\r\n        if (bidToCheck.bidHash != keccak256(abi.encode(value, secret))) {\r\n            // Bid was not actually revealed.\r\n            // Do not refund deposit.\r\n            emit BidRevealFailed(auction_id, msg.sender);\r\n        } else {\r\n            // Make it impossible for the sender to re-claim\r\n            bidToCheck.bidHash = bytes32(0);\r\n\r\n            Auctions[auction_id].revealedBidders.push(payable(msg.sender));\r\n            Auctions[auction_id].revealed[msg.sender] = true;\r\n            refund += bidToCheck.deposit;\r\n            if (bidToCheck.deposit >= 2 * value) {\r\n                if (placeBid(auction_id, payable(msg.sender), value))\r\n                    refund -= 2 * value;\r\n                emit BidRevealed(auction_id, msg.sender);\r\n            } else emit DepositNotEnough(auction_id, msg.sender);\r\n            // the same deposit.\r\n            emit BalanceRefunded(auction_id, msg.sender, refund);\r\n            payable(msg.sender).transfer(refund);\r\n        }\r\n    }\r\n\r\n\r\n    function placeBid(\r\n        uint256 auction_id,\r\n        address payable bidder,\r\n        uint256 value\r\n    ) internal returns (bool success) {\r\n        if (value <= Auctions[auction_id].highestBid) {\r\n            return false;\r\n        }\r\n        if (Auctions[auction_id].highestBidder != address(0)) {\r\n            // Refund the previously highest bidder.\r\n            Auctions[auction_id].pendingReturns[\r\n                Auctions[auction_id].highestBidder\r\n            ] += 2 * Auctions[auction_id].highestBid;\r\n        }\r\n        Auctions[auction_id].highestBid = value;\r\n        Auctions[auction_id].highestBidder = bidder;\r\n        emit NewHighestBid(auction_id, bidder, value);\r\n        return true;\r\n    }\r\n\r\n\r\n    function withdraw(uint256 auction_id, address payable bidder)\r\n        internal\r\n        auctionEnded(auction_id)\r\n    {\r\n        //emit BidderRefunded(auction_id,msg.sender, Auctions[auction_id].pendingReturns[msg.sender]);\r\n        if (Auctions[auction_id].pendingReturns[bidder] > 0) {\r\n            uint256 value = Auctions[auction_id].pendingReturns[bidder];\r\n            Auctions[auction_id].pendingReturns[bidder] = 0;\r\n            address payable payable_sender = bidder;\r\n            payable_sender.transfer(value);\r\n            emit BidderRefunded(auction_id, bidder, value);\r\n        }\r\n    }\r\n\r\n\r\n    function auctionEnd(uint256 auction_id)\r\n        external\r\n        onlyAfter(Auctions[auction_id].revealEnd)\r\n        onlyBeneficiary(auction_id)\r\n        auctionActive(auction_id)\r\n    {\r\n        // if (Auctions[auction_id].ended) revert AuctionEndAlreadyCalled();\r\n        if (\r\n            Auctions[auction_id].highestBid == 0 &&\r\n            Auctions[auction_id].highestBidder == address(0)\r\n        ) {\r\n            emit ItemUnsold(auction_id);\r\n            emit AuctionEnded(auction_id, address(0), 0);\r\n            Auctions[auction_id].ended = true;\r\n            activeauctions -= 1;\r\n        } else {\r\n            emit AuctionEnded(\r\n                auction_id,\r\n                Auctions[auction_id].highestBidder,\r\n                Auctions[auction_id].highestBid\r\n            );\r\n            Auctions[auction_id].ended = true;\r\n            activeauctions -= 1;\r\n            Auctions[auction_id].winner = Auctions[auction_id].highestBidder;\r\n            Auctions[auction_id].winningBid = Auctions[auction_id].highestBid;\r\n            for (\r\n                uint256 i = 0;\r\n                i < Auctions[auction_id].revealedBidders.length;\r\n                ++i\r\n            ) {\r\n                withdraw(auction_id, Auctions[auction_id].revealedBidders[i]);\r\n            }\r\n            emit WinnerChosen(\r\n                auction_id,\r\n                Auctions[auction_id].winner,\r\n                Auctions[auction_id].pubkey[Auctions[auction_id].winner],\r\n                Auctions[auction_id].winningBid\r\n            );\r\n        }\r\n    }\r\n\r\n    function sellItem(uint256 auction_id, string calldata H)\r\n        external\r\n        payable\r\n        validAuctionId(auction_id)\r\n        auctionEnded(auction_id)\r\n        onlyBeneficiary(auction_id)\r\n    {\r\n        /// Check the security deposits\r\n        require(\r\n            msg.value == 2 * Auctions[auction_id].winningBid,\r\n            \"You have not paid right the security deposit\"\r\n        );\r\n        Auctions[auction_id].H = H;\r\n\r\n        emit encryptedKey(auction_id, H);\r\n    }\r\n    function confirmDelivery(uint256 auction_id)\r\n        external\r\n        payable\r\n        validAuctionId(auction_id)\r\n        onlyWinner(auction_id)\r\n        auctionEnded(auction_id)\r\n    {\r\n        /// Refund the seller\r\n        uint256 amt = Auctions[auction_id].winningBid;\r\n        uint256 prof = 3 * amt;\r\n        Auctions[auction_id].pendingReturns[Auctions[auction_id].winner] = 0;\r\n        Auctions[auction_id].sold = true;\r\n\r\n        Auctions[auction_id].beneficiary.transfer(prof);\r\n        Auctions[auction_id].winner.transfer(amt);\r\n\r\n        emit deliveryComplete(auction_id);\r\n    }\r\n}",
  "sourcePath": "C:\\Users\\VietAi\\OneDrive\\My tnh\\Cap\\cap\\contracts\\BlindAuction.sol",
  "compiler": {
    "name": "solc",
    "version": "0.8.17+commit.8df45f5f.Emscripten.clang"
  },
  "schemaVersion": "3.4.10",
  "updatedAt": "2022-11-13T13:51:41.687Z",
  "networkType": "ethereum",
  "devdoc": {
    "events": {
      "AuctionEnded(uint256,address,uint256)": {
        "details": "this event to annouce auction started",
        "params": {
          "Auction_id": "is the id of the auction",
          "highestBid": "is the value of the winning bid",
          "highestBidder": "is the address of the highest Bidder"
        }
      },
      "AuctionStarted(uint256,string,string)": {
        "details": "this event is for when auction item is for when item for auction is listed",
        "params": {
          "Auction_id": "id of the auction",
          "item_description": "description of the item to be auctioned",
          "item_name": "name of the item to be Auction"
        }
      },
      "BalanceRefunded(uint256,address,uint256)": {
        "details": "event to notify Refunds of bids",
        "params": {
          "auction_id": "is the id of the auction",
          "balance": "refers to whether the bid is succesfully revealed and refund done",
          "bidder": "is the address of the revealer"
        }
      },
      "BidMade(address)": {
        "details": "announcement of a new",
        "params": {
          "bidder": "address of the bidder"
        }
      },
      "BidRevealFailed(uint256,address)": {
        "details": "bid revealed failed",
        "params": {
          "Auction_id": "is the id of the auction",
          "bidder": "is the address of the revealer"
        }
      },
      "BidRevealed(uint256,address)": {
        "details": "bid revealed",
        "params": {
          "Auction_id": "is the id of the auction",
          "bidder": "is the address of the revealer"
        }
      },
      "BidderRefunded(uint256,address,uint256)": {
        "details": "event to notify Refunds of bids",
        "params": {
          "auction_id": "is the id of the auction",
          "bid_value": "refers to whether the bid is succesfully revealed and refund done",
          "bidder": "is the address of the revealer"
        }
      },
      "BiddingPeriodEnded(uint256)": {
        "details": "this event to annouce bidding period ended",
        "params": {
          "Auction_id": "is the id of the auction"
        }
      },
      "BiddingStarted(uint256,uint256)": {
        "details": "this event to annouce bidding started",
        "params": {
          "Auction_id": "is the id of the auction",
          "bidding_end": "is the time when bidding period ends"
        }
      },
      "DepositNotEnough(uint256,address)": {
        "details": "event to notify when the deposit is not enough",
        "params": {
          "auction_id": "is the id of the auction",
          "bidder": "is the bidder"
        }
      },
      "ItemUnsold(uint256)": {
        "details": "when an item goes unsold at the end of the auction",
        "params": {
          "auction_id": "is the id of the auction"
        }
      },
      "NewHighestBid(uint256,address,uint256)": {
        "details": "to notify highest Bid has been modified",
        "params": {
          "auction_id": "is the id of the auction",
          "bid_value": "refers to the bid",
          "bidder": "is the bidder"
        }
      },
      "RevealPeriodEnded(uint256)": {
        "details": "annouce to end revealing period",
        "params": {
          "Auction_id": "id of the auction"
        }
      },
      "RevealPeriodStarted(uint256,uint256)": {
        "details": "announcement to start revealing bids",
        "params": {
          "Auction_id": "id of the auction item",
          "reveal_end": "is the time when revealing period ends"
        }
      },
      "WinnerChosen(uint256,address,string,uint256)": {
        "details": "announce winner",
        "params": {
          "Auction_id": "is the id of the auction",
          "pubkey": "is the public key of the winner",
          "winner": "is the address of the winner",
          "winningBid": "is the value of the winning bid"
        }
      },
      "deliveryComplete(uint256)": {
        "details": "to confirm delivery",
        "params": {
          "auction_id": "is the id of the auction"
        }
      },
      "encryptedKey(uint256,string)": {
        "details": "event to send the hashed Item",
        "params": {
          "H": "is the hashed passwords",
          "auction_id": "is the id of the auction"
        }
      }
    },
    "kind": "dev",
    "methods": {
      "auctionItem(string,string,uint256,uint256)": {
        "details": "function to list the auction of a new item",
        "params": {
          "bidding_time": "how long the bidding will go",
          "item_description": "is the description of the item",
          "item_name": "name of the item",
          "reveal_time": "how long the reveal will go"
        }
      },
      "bid(bytes32,uint256,string)": {
        "params": {
          "auction_id": "is the id of the auction",
          "blindedBid": "is the hashed version of bid",
          "pubkey": "is the public key of the bidder"
        }
      },
      "getAccountBalance(address)": {
        "params": {
          "account": "Address of the account."
        }
      },
      "getactiveauctions()": {
        "returns": {
          "_0": "a list of active auction listings"
        }
      },
      "getallauctions()": {
        "returns": {
          "_0": "a list of all auction listings"
        }
      },
      "reveal(uint256,string,uint256)": {
        "details": "Reveal your blinded bids. You will get a refund for allcorrectly blinded invalid bids and for all bids except forthe totally highest.",
        "params": {
          "auction_id": "id of the auction",
          "secret": "again not sure",
          "value": "value of the bid"
        }
      }
    },
    "stateVariables": {
      "Auctions": {
        "details": "create a lists of all auctions"
      }
    },
    "title": "The contract for buying and selling items on a market",
    "version": 1
  },
  "userdoc": {
    "kind": "user",
    "methods": {
      "getAccountBalance(address)": {
        "notice": "returns balance of account"
      },
      "getactiveauctions()": {
        "notice": "Get all the active auction listings items in the market"
      },
      "getallauctions()": {
        "notice": "Get all the auction listings items in the market"
      }
    },
    "version": 1
  }
}